{
  "_format": "hh-sol-artifact-1",
  "contractName": "CarbonCreditMarketplace",
  "sourceName": "contracts/CarbonCreditMarketplace.sol",
  "abi": [
    {
      "inputs": [
        {
          "internalType": "address",
          "name": "_carbonTokenAddress",
          "type": "address"
        }
      ],
      "stateMutability": "nonpayable",
      "type": "constructor"
    },
    {
      "inputs": [],
      "name": "EnforcedPause",
      "type": "error"
    },
    {
      "inputs": [],
      "name": "ExpectedPause",
      "type": "error"
    },
    {
      "inputs": [
        {
          "internalType": "address",
          "name": "owner",
          "type": "address"
        }
      ],
      "name": "OwnableInvalidOwner",
      "type": "error"
    },
    {
      "inputs": [
        {
          "internalType": "address",
          "name": "account",
          "type": "address"
        }
      ],
      "name": "OwnableUnauthorizedAccount",
      "type": "error"
    },
    {
      "inputs": [],
      "name": "ReentrancyGuardReentrantCall",
      "type": "error"
    },
    {
      "anonymous": false,
      "inputs": [
        {
          "indexed": true,
          "internalType": "address",
          "name": "seller",
          "type": "address"
        },
        {
          "indexed": true,
          "internalType": "address",
          "name": "buyer",
          "type": "address"
        },
        {
          "indexed": false,
          "internalType": "uint256",
          "name": "amount",
          "type": "uint256"
        },
        {
          "indexed": false,
          "internalType": "uint256",
          "name": "totalPrice",
          "type": "uint256"
        },
        {
          "indexed": false,
          "internalType": "uint256",
          "name": "projectId",
          "type": "uint256"
        }
      ],
      "name": "CreditsTraded",
      "type": "event"
    },
    {
      "anonymous": false,
      "inputs": [
        {
          "indexed": false,
          "internalType": "uint256",
          "name": "newFee",
          "type": "uint256"
        }
      ],
      "name": "MarketplaceFeeUpdated",
      "type": "event"
    },
    {
      "anonymous": false,
      "inputs": [
        {
          "indexed": true,
          "internalType": "address",
          "name": "previousOwner",
          "type": "address"
        },
        {
          "indexed": true,
          "internalType": "address",
          "name": "newOwner",
          "type": "address"
        }
      ],
      "name": "OwnershipTransferred",
      "type": "event"
    },
    {
      "anonymous": false,
      "inputs": [
        {
          "indexed": false,
          "internalType": "address",
          "name": "account",
          "type": "address"
        }
      ],
      "name": "Paused",
      "type": "event"
    },
    {
      "anonymous": false,
      "inputs": [
        {
          "indexed": true,
          "internalType": "uint256",
          "name": "tenderId",
          "type": "uint256"
        },
        {
          "indexed": true,
          "internalType": "uint256",
          "name": "proposalId",
          "type": "uint256"
        },
        {
          "indexed": true,
          "internalType": "address",
          "name": "ngo",
          "type": "address"
        },
        {
          "indexed": false,
          "internalType": "uint256",
          "name": "creditsOffered",
          "type": "uint256"
        },
        {
          "indexed": false,
          "internalType": "uint256",
          "name": "pricePerCredit",
          "type": "uint256"
        }
      ],
      "name": "ProposalSubmitted",
      "type": "event"
    },
    {
      "anonymous": false,
      "inputs": [
        {
          "indexed": true,
          "internalType": "uint256",
          "name": "tenderId",
          "type": "uint256"
        },
        {
          "indexed": true,
          "internalType": "uint256",
          "name": "proposalId",
          "type": "uint256"
        },
        {
          "indexed": true,
          "internalType": "address",
          "name": "winner",
          "type": "address"
        }
      ],
      "name": "TenderAwarded",
      "type": "event"
    },
    {
      "anonymous": false,
      "inputs": [
        {
          "indexed": true,
          "internalType": "uint256",
          "name": "tenderId",
          "type": "uint256"
        },
        {
          "indexed": true,
          "internalType": "address",
          "name": "corporate",
          "type": "address"
        },
        {
          "indexed": false,
          "internalType": "uint256",
          "name": "creditsRequired",
          "type": "uint256"
        },
        {
          "indexed": false,
          "internalType": "uint256",
          "name": "maxPrice",
          "type": "uint256"
        }
      ],
      "name": "TenderCreated",
      "type": "event"
    },
    {
      "anonymous": false,
      "inputs": [
        {
          "indexed": false,
          "internalType": "address",
          "name": "account",
          "type": "address"
        }
      ],
      "name": "Unpaused",
      "type": "event"
    },
    {
      "inputs": [
        {
          "internalType": "uint256",
          "name": "_tenderId",
          "type": "uint256"
        },
        {
          "internalType": "uint256",
          "name": "_proposalId",
          "type": "uint256"
        }
      ],
      "name": "awardTender",
      "outputs": [],
      "stateMutability": "nonpayable",
      "type": "function"
    },
    {
      "inputs": [
        {
          "internalType": "uint256",
          "name": "_tenderId",
          "type": "uint256"
        }
      ],
      "name": "cancelTender",
      "outputs": [],
      "stateMutability": "nonpayable",
      "type": "function"
    },
    {
      "inputs": [],
      "name": "carbonToken",
      "outputs": [
        {
          "internalType": "contract CarbonCreditToken",
          "name": "",
          "type": "address"
        }
      ],
      "stateMutability": "view",
      "type": "function"
    },
    {
      "inputs": [
        {
          "internalType": "uint256",
          "name": "_projectId",
          "type": "uint256"
        },
        {
          "internalType": "uint256",
          "name": "_creditsAmount",
          "type": "uint256"
        },
        {
          "internalType": "uint256",
          "name": "_pricePerCredit",
          "type": "uint256"
        }
      ],
      "name": "createDirectListing",
      "outputs": [
        {
          "internalType": "uint256",
          "name": "",
          "type": "uint256"
        }
      ],
      "stateMutability": "nonpayable",
      "type": "function"
    },
    {
      "inputs": [
        {
          "internalType": "string",
          "name": "_title",
          "type": "string"
        },
        {
          "internalType": "string",
          "name": "_description",
          "type": "string"
        },
        {
          "internalType": "uint256",
          "name": "_creditsRequired",
          "type": "uint256"
        },
        {
          "internalType": "uint256",
          "name": "_maxPricePerCredit",
          "type": "uint256"
        },
        {
          "internalType": "uint256",
          "name": "_durationDays",
          "type": "uint256"
        }
      ],
      "name": "createTender",
      "outputs": [
        {
          "internalType": "uint256",
          "name": "",
          "type": "uint256"
        }
      ],
      "stateMutability": "nonpayable",
      "type": "function"
    },
    {
      "inputs": [
        {
          "internalType": "uint256",
          "name": "",
          "type": "uint256"
        }
      ],
      "name": "directListings",
      "outputs": [
        {
          "internalType": "uint256",
          "name": "id",
          "type": "uint256"
        },
        {
          "internalType": "address",
          "name": "seller",
          "type": "address"
        },
        {
          "internalType": "uint256",
          "name": "projectId",
          "type": "uint256"
        },
        {
          "internalType": "uint256",
          "name": "creditsAmount",
          "type": "uint256"
        },
        {
          "internalType": "uint256",
          "name": "pricePerCredit",
          "type": "uint256"
        },
        {
          "internalType": "bool",
          "name": "isActive",
          "type": "bool"
        },
        {
          "internalType": "uint256",
          "name": "createdAt",
          "type": "uint256"
        }
      ],
      "stateMutability": "view",
      "type": "function"
    },
    {
      "inputs": [
        {
          "internalType": "uint256",
          "name": "_tenderId",
          "type": "uint256"
        }
      ],
      "name": "getTenderProposals",
      "outputs": [
        {
          "internalType": "uint256[]",
          "name": "",
          "type": "uint256[]"
        }
      ],
      "stateMutability": "view",
      "type": "function"
    },
    {
      "inputs": [
        {
          "internalType": "address",
          "name": "_user",
          "type": "address"
        }
      ],
      "name": "getUserProposals",
      "outputs": [
        {
          "internalType": "uint256[]",
          "name": "",
          "type": "uint256[]"
        }
      ],
      "stateMutability": "view",
      "type": "function"
    },
    {
      "inputs": [
        {
          "internalType": "address",
          "name": "_user",
          "type": "address"
        }
      ],
      "name": "getUserTenders",
      "outputs": [
        {
          "internalType": "uint256[]",
          "name": "",
          "type": "uint256[]"
        }
      ],
      "stateMutability": "view",
      "type": "function"
    },
    {
      "inputs": [],
      "name": "marketplaceFeePercent",
      "outputs": [
        {
          "internalType": "uint256",
          "name": "",
          "type": "uint256"
        }
      ],
      "stateMutability": "view",
      "type": "function"
    },
    {
      "inputs": [],
      "name": "nextListingId",
      "outputs": [
        {
          "internalType": "uint256",
          "name": "",
          "type": "uint256"
        }
      ],
      "stateMutability": "view",
      "type": "function"
    },
    {
      "inputs": [],
      "name": "nextProposalId",
      "outputs": [
        {
          "internalType": "uint256",
          "name": "",
          "type": "uint256"
        }
      ],
      "stateMutability": "view",
      "type": "function"
    },
    {
      "inputs": [],
      "name": "nextTenderId",
      "outputs": [
        {
          "internalType": "uint256",
          "name": "",
          "type": "uint256"
        }
      ],
      "stateMutability": "view",
      "type": "function"
    },
    {
      "inputs": [],
      "name": "owner",
      "outputs": [
        {
          "internalType": "address",
          "name": "",
          "type": "address"
        }
      ],
      "stateMutability": "view",
      "type": "function"
    },
    {
      "inputs": [],
      "name": "pause",
      "outputs": [],
      "stateMutability": "nonpayable",
      "type": "function"
    },
    {
      "inputs": [],
      "name": "paused",
      "outputs": [
        {
          "internalType": "bool",
          "name": "",
          "type": "bool"
        }
      ],
      "stateMutability": "view",
      "type": "function"
    },
    {
      "inputs": [
        {
          "internalType": "uint256",
          "name": "",
          "type": "uint256"
        }
      ],
      "name": "proposals",
      "outputs": [
        {
          "internalType": "uint256",
          "name": "id",
          "type": "uint256"
        },
        {
          "internalType": "uint256",
          "name": "tenderId",
          "type": "uint256"
        },
        {
          "internalType": "address",
          "name": "ngo",
          "type": "address"
        },
        {
          "internalType": "uint256",
          "name": "creditsOffered",
          "type": "uint256"
        },
        {
          "internalType": "uint256",
          "name": "pricePerCredit",
          "type": "uint256"
        },
        {
          "internalType": "uint256",
          "name": "projectId",
          "type": "uint256"
        },
        {
          "internalType": "string",
          "name": "projectDescription",
          "type": "string"
        },
        {
          "internalType": "enum CarbonCreditMarketplace.ProposalStatus",
          "name": "status",
          "type": "uint8"
        },
        {
          "internalType": "uint256",
          "name": "submittedAt",
          "type": "uint256"
        }
      ],
      "stateMutability": "view",
      "type": "function"
    },
    {
      "inputs": [
        {
          "internalType": "uint256",
          "name": "_listingId",
          "type": "uint256"
        },
        {
          "internalType": "uint256",
          "name": "_creditsAmount",
          "type": "uint256"
        }
      ],
      "name": "purchaseFromListing",
      "outputs": [],
      "stateMutability": "payable",
      "type": "function"
    },
    {
      "inputs": [],
      "name": "renounceOwnership",
      "outputs": [],
      "stateMutability": "nonpayable",
      "type": "function"
    },
    {
      "inputs": [
        {
          "internalType": "uint256",
          "name": "_tenderId",
          "type": "uint256"
        },
        {
          "internalType": "uint256",
          "name": "_creditsOffered",
          "type": "uint256"
        },
        {
          "internalType": "uint256",
          "name": "_pricePerCredit",
          "type": "uint256"
        },
        {
          "internalType": "uint256",
          "name": "_projectId",
          "type": "uint256"
        },
        {
          "internalType": "string",
          "name": "_projectDescription",
          "type": "string"
        }
      ],
      "name": "submitProposal",
      "outputs": [
        {
          "internalType": "uint256",
          "name": "",
          "type": "uint256"
        }
      ],
      "stateMutability": "nonpayable",
      "type": "function"
    },
    {
      "inputs": [
        {
          "internalType": "uint256",
          "name": "",
          "type": "uint256"
        },
        {
          "internalType": "uint256",
          "name": "",
          "type": "uint256"
        }
      ],
      "name": "tenderProposals",
      "outputs": [
        {
          "internalType": "uint256",
          "name": "",
          "type": "uint256"
        }
      ],
      "stateMutability": "view",
      "type": "function"
    },
    {
      "inputs": [
        {
          "internalType": "uint256",
          "name": "",
          "type": "uint256"
        }
      ],
      "name": "tenders",
      "outputs": [
        {
          "internalType": "uint256",
          "name": "id",
          "type": "uint256"
        },
        {
          "internalType": "address",
          "name": "corporate",
          "type": "address"
        },
        {
          "internalType": "string",
          "name": "title",
          "type": "string"
        },
        {
          "internalType": "string",
          "name": "description",
          "type": "string"
        },
        {
          "internalType": "uint256",
          "name": "creditsRequired",
          "type": "uint256"
        },
        {
          "internalType": "uint256",
          "name": "maxPricePerCredit",
          "type": "uint256"
        },
        {
          "internalType": "uint256",
          "name": "deadline",
          "type": "uint256"
        },
        {
          "internalType": "enum CarbonCreditMarketplace.TenderStatus",
          "name": "status",
          "type": "uint8"
        },
        {
          "internalType": "uint256",
          "name": "createdAt",
          "type": "uint256"
        },
        {
          "internalType": "uint256",
          "name": "winningProposalId",
          "type": "uint256"
        }
      ],
      "stateMutability": "view",
      "type": "function"
    },
    {
      "inputs": [
        {
          "internalType": "address",
          "name": "newOwner",
          "type": "address"
        }
      ],
      "name": "transferOwnership",
      "outputs": [],
      "stateMutability": "nonpayable",
      "type": "function"
    },
    {
      "inputs": [],
      "name": "unpause",
      "outputs": [],
      "stateMutability": "nonpayable",
      "type": "function"
    },
    {
      "inputs": [
        {
          "internalType": "uint256",
          "name": "_newFeePercent",
          "type": "uint256"
        }
      ],
      "name": "updateMarketplaceFee",
      "outputs": [],
      "stateMutability": "nonpayable",
      "type": "function"
    },
    {
      "inputs": [
        {
          "internalType": "address",
          "name": "",
          "type": "address"
        },
        {
          "internalType": "uint256",
          "name": "",
          "type": "uint256"
        }
      ],
      "name": "userProposals",
      "outputs": [
        {
          "internalType": "uint256",
          "name": "",
          "type": "uint256"
        }
      ],
      "stateMutability": "view",
      "type": "function"
    },
    {
      "inputs": [
        {
          "internalType": "address",
          "name": "",
          "type": "address"
        },
        {
          "internalType": "uint256",
          "name": "",
          "type": "uint256"
        }
      ],
      "name": "userTenders",
      "outputs": [
        {
          "internalType": "uint256",
          "name": "",
          "type": "uint256"
        }
      ],
      "stateMutability": "view",
      "type": "function"
    },
    {
      "inputs": [],
      "name": "withdrawFees",
      "outputs": [],
      "stateMutability": "nonpayable",
      "type": "function"
    }
  ],
  "bytecode": "0x608060405260016009556001600a556001600b5560fa600c553480156200002557600080fd5b50604051620026d5380380620026d58339810160408190526200004891620000f5565b33806200006f57604051631e4fbdf760e01b81526000600482015260240160405180910390fd5b6200007a81620000a5565b5060018055600280546001600160a01b0319166001600160a01b039290921691909117905562000127565b600080546001600160a01b038381166001600160a01b0319831681178455604051919092169283917f8be0079c531659141344cd1fd0a4f28419497f9722a3daafe3b4186f6b6457e09190a35050565b6000602082840312156200010857600080fd5b81516001600160a01b03811681146200012057600080fd5b9392505050565b61259e80620001376000396000f3fe6080604052600436106101b75760003560e01c8063667c1a24116100ec5780639873f6371161008a578063b67d03f311610064578063b67d03f3146104d9578063d00b2c731461057e578063f2fde38b1461059e578063fd23dc78146105be57600080fd5b80639873f63714610483578063a6c6fe3b146104a3578063aaccf1ec146104c357600080fd5b806378ef1138116100c657806378ef1138146103f857806382a71ef2146104185780638456cb59146104505780638da5cb5b1461046557600080fd5b8063667c1a24146103ad578063715018a6146103c357806372d64f50146103d857600080fd5b80633a74e07011610159578063476343ee11610133578063476343ee146103215780634f81c140146103365780635810f969146103635780635c975abb1461038357600080fd5b80633a74e070146102b65780633f4ba83a146102d6578063465e1def146102eb57600080fd5b80632ab09d14116101955780632ab09d141461024857806330eb80cd1461025e5780633168341e1461028057806338d73b0d146102a057600080fd5b8063013cf08b146101bc57806309e30bb7146101fa5780631b31527f14610228575b600080fd5b3480156101c857600080fd5b506101dc6101d7366004611f27565b6105d1565b6040516101f199989796959493929190611f9c565b60405180910390f35b34801561020657600080fd5b5061021a610215366004612007565b6106b2565b6040519081526020016101f1565b34801561023457600080fd5b5061021a610243366004612045565b6106e3565b34801561025457600080fd5b5061021a600a5481565b34801561026a57600080fd5b5061027e610279366004611f27565b6106ff565b005b34801561028c57600080fd5b5061021a61029b366004612045565b610791565b3480156102ac57600080fd5b5061021a600c5481565b3480156102c257600080fd5b5061027e6102d1366004611f27565b6107ad565b3480156102e257600080fd5b5061027e610936565b3480156102f757600080fd5b5061030b610306366004611f27565b610948565b6040516101f19a9998979695949392919061206f565b34801561032d57600080fd5b5061027e610ab5565b34801561034257600080fd5b506103566103513660046120f6565b610b3e565b6040516101f19190612118565b34801561036f57600080fd5b5061027e61037e366004612007565b610baa565b34801561038f57600080fd5b50600054600160a01b900460ff1660405190151581526020016101f1565b3480156103b957600080fd5b5061021a60095481565b3480156103cf57600080fd5b5061027e611094565b3480156103e457600080fd5b5061021a6103f33660046121ff565b6110a6565b34801561040457600080fd5b506103566104133660046120f6565b61144b565b34801561042457600080fd5b50600254610438906001600160a01b031681565b6040516001600160a01b0390911681526020016101f1565b34801561045c57600080fd5b5061027e6114b5565b34801561047157600080fd5b506000546001600160a01b0316610438565b34801561048f57600080fd5b5061021a61049e366004612263565b6114c5565b3480156104af57600080fd5b5061021a6104be3660046122e2565b61178d565b3480156104cf57600080fd5b5061021a600b5481565b3480156104e557600080fd5b5061053f6104f4366004611f27565b6005602081905260009182526040909120805460018201546002830154600384015460048501549585015460069095015493956001600160a01b0390931694919390929160ff169087565b604080519788526001600160a01b0390961660208801529486019390935260608501919091526080840152151560a083015260c082015260e0016101f1565b34801561058a57600080fd5b50610356610599366004611f27565b6119c2565b3480156105aa57600080fd5b5061027e6105b93660046120f6565b611a22565b61027e6105cc366004612007565b611a60565b60046020819052600091825260409091208054600182015460028301546003840154948401546005850154600686018054959794966001600160a01b03909416959293919261061f9061230e565b80601f016020809104026020016040519081016040528092919081815260200182805461064b9061230e565b80156106985780601f1061066d57610100808354040283529160200191610698565b820191906000526020600020905b81548152906001019060200180831161067b57829003601f168201915b505050506007830154600890930154919260ff1691905089565b600660205281600052604060002081815481106106ce57600080fd5b90600052602060002001600091509150505481565b600860205281600052604060002081815481106106ce57600080fd5b610707611d93565b6103e88111156107565760405162461bcd60e51b81526020600482015260156024820152744665652063616e6e6f74206578636565642031302560581b60448201526064015b60405180910390fd5b600c8190556040518181527fe18aa129833f655a8166b6185277fee7a53f67e46fd32329bc2fc2ac21274d559060200160405180910390a150565b600760205281600052604060002081815481106106ce57600080fd5b600081815260036020526040902060018101546001600160a01b031633146108175760405162461bcd60e51b815260206004820152601e60248201527f4f6e6c792074656e6465722063726561746f722063616e2063616e63656c0000604482015260640161074d565b6000600782015460ff16600381111561083257610832611f86565b1461084f5760405162461bcd60e51b815260040161074d90612348565b60078101805460ff191660031790556000828152600660209081526040808320805482518185028101850190935280835291929091908301828280156108b457602002820191906000526020600020905b8154815260200190600101908083116108a0575b5050505050905060005b8151811015610930576002600460008484815181106108df576108df612374565b6020026020010151815260200190815260200160002060070160006101000a81548160ff0219169083600281111561091957610919611f86565b021790555080610928816123a0565b9150506108be565b50505050565b61093e611d93565b610946611dc0565b565b60036020526000908152604090208054600182015460028301805492936001600160a01b039092169261097a9061230e565b80601f01602080910402602001604051908101604052809291908181526020018280546109a69061230e565b80156109f35780601f106109c8576101008083540402835291602001916109f3565b820191906000526020600020905b8154815290600101906020018083116109d657829003601f168201915b505050505090806003018054610a089061230e565b80601f0160208091040260200160405190810160405280929190818152602001828054610a349061230e565b8015610a815780601f10610a5657610100808354040283529160200191610a81565b820191906000526020600020905b815481529060010190602001808311610a6457829003601f168201915b505050600484015460058501546006860154600787015460088801546009909801549697939692955090935060ff1691908a565b610abd611d93565b4780610b015760405162461bcd60e51b81526020600482015260136024820152724e6f206665657320746f20776974686472617760681b604482015260640161074d565b600080546040516001600160a01b039091169183156108fc02918491818181858888f19350505050158015610b3a573d6000803e3d6000fd5b5050565b6001600160a01b038116600090815260076020908152604091829020805483518184028101840190945280845260609392830182828015610b9e57602002820191906000526020600020905b815481526020019060010190808311610b8a575b50505050509050919050565b610bb2611e15565b610bba611e40565b6000828152600360209081526040808320848452600490925290912060018201546001600160a01b03163314610c325760405162461bcd60e51b815260206004820152601d60248201527f4f6e6c792074656e6465722063726561746f722063616e206177617264000000604482015260640161074d565b6000600783015460ff166003811115610c4d57610c4d611f86565b14610c6a5760405162461bcd60e51b815260040161074d90612348565b83816001015414610ccd5760405162461bcd60e51b815260206004820152602760248201527f50726f706f73616c20646f6573206e6f742062656c6f6e6720746f2074686973604482015266103a32b73232b960c91b606482015260840161074d565b6000600782015460ff166002811115610ce857610ce8611f86565b14610d355760405162461bcd60e51b815260206004820152601760248201527f50726f706f73616c206973206e6f742070656e64696e67000000000000000000604482015260640161074d565b600081600401548260030154610d4b91906123b9565b90506000612710600c5483610d6091906123b9565b610d6a91906123d6565b90506000610d7882846123f8565b90503331831115610dc05760405162461bcd60e51b8152602060048201526012602482015271496e73756666696369656e742066756e647360701b604482015260640161074d565b60028401546040516001600160a01b039091169082156108fc029083906000818181858888f19350505050158015610dfc573d6000803e3d6000fd5b506002805490850154600386015460058701546040516322f76a0760e21b81526001600160a01b03938416600482015233602482015260448101929092526064820152911690638bdda81c906084016020604051808303816000875af1158015610e6a573d6000803e3d6000fd5b505050506040513d601f19601f82011682018060405250810190610e8e919061240b565b610ed35760405162461bcd60e51b815260206004820152601660248201527510dc99591a5d081d1c985b9cd9995c8819985a5b195960521b604482015260640161074d565b6007858101805460ff199081166002179091556009870188905590850180549091166001179055600087815260066020908152604080832080548251818502810185019093528083529192909190830182828015610f5057602002820191906000526020600020905b815481526020019060010190808311610f3c575b5050505050905060005b8151811015610fed5787828281518110610f7657610f76612374565b602002602001015114610fdb57600260046000848481518110610f9b57610f9b612374565b6020026020010151815260200190815260200160002060070160006101000a81548160ff02191690836002811115610fd557610fd5611f86565b02179055505b80610fe5816123a0565b915050610f5a565b5060028501546040516001600160a01b039091169088908a907ff1156543f03b93ee9dcef7a0ffc9e864350e1e9930f96c290a3ec60e3d80149090600090a4600285015460038601546005870154604080519283526020830188905282015233916001600160a01b0316907f9856dcfeeff0227e0797723483c846a519e5e41fbf6c2cb0cbc6ef8a6cb426379060600160405180910390a3505050505050610b3a60018055565b61109c611d93565b6109466000611e6a565b60006110b0611e15565b600086815260036020526040812090600782015460ff1660038111156110d8576110d8611f86565b146110f55760405162461bcd60e51b815260040161074d90612348565b806006015442106111485760405162461bcd60e51b815260206004820152601a60248201527f54656e64657220646561646c696e652068617320706173736564000000000000604482015260640161074d565b806004015486101561119c5760405162461bcd60e51b815260206004820152601c60248201527f496e73756666696369656e742063726564697473206f66666572656400000000604482015260640161074d565b80600501548511156111e85760405162461bcd60e51b815260206004820152601560248201527450726963652065786365656473206d6178696d756d60581b604482015260640161074d565b600254604051631aa7c1f560e01b81523360048201526024810186905287916001600160a01b031690631aa7c1f590604401602060405180830381865afa158015611237573d6000803e3d6000fd5b505050506040513d601f19601f8201168201806040525081019061125b919061242d565b10156112a95760405162461bcd60e51b815260206004820152601c60248201527f496e73756666696369656e742070726f6a656374206372656469747300000000604482015260640161074d565b600a8054600091826112ba836123a0565b919050559050604051806101200160405280828152602001898152602001336001600160a01b031681526020018881526020018781526020018681526020018581526020016000600281111561131257611312611f86565b8152426020918201526000838152600480835260409182902084518155928401516001840155908301516002830180546001600160a01b0319166001600160a01b039092169190911790556060830151600383015560808301519082015560a0820151600582015560c0820151600682019061138e9082612495565b5060e082015160078201805460ff191660018360028111156113b2576113b2611f86565b02179055506101009190910151600891820155600089815260066020908152604080832080546001808201835591855283852001869055338085529483528184208054918201815584529282902090920184905581518a815290810189905283918b917f13f397dfd72ae583d299f230ef3e86217e7e82bde374a950f94891711c40a050910160405180910390a4979650505050505050565b6001600160a01b038116600090815260086020908152604091829020805483518184028101840190945280845260609392830182828015610b9e5760200282019190600052602060002090815481526020019060010190808311610b8a5750505050509050919050565b6114bd611d93565b610946611eba565b60006114cf611e15565b6000841161152f5760405162461bcd60e51b815260206004820152602760248201527f43726564697473207265717569726564206d75737420626520677265617465726044820152660207468616e20360cc1b606482015260840161074d565b6000831161157f5760405162461bcd60e51b815260206004820181905260248201527f4d6178207072696365206d7573742062652067726561746572207468616e2030604482015260640161074d565b600082116115cf5760405162461bcd60e51b815260206004820152601f60248201527f4475726174696f6e206d7573742062652067726561746572207468616e203000604482015260640161074d565b60098054600091826115e0836123a0565b90915550905060006115f584620151806123b9565b6115ff9042612555565b9050604051806101400160405280838152602001336001600160a01b031681526020018981526020018881526020018781526020018681526020018281526020016000600381111561165357611653611f86565b815242602080830191909152600060409283018190528581526003825282902083518155908301516001820180546001600160a01b0319166001600160a01b039092169190911790559082015160028201906116af9082612495565b50606082015160038201906116c49082612495565b506080820151600482015560a0820151600582015560c0820151600682015560e082015160078201805460ff1916600183600381111561170657611706611f86565b0217905550610100820151600882015561012090910151600990910155336000818152600760209081526040808320805460018101825590845292829020909201859055815189815290810188905284917f5f1d19c087613cfac381c945f94c4a873c70b74c8245e122e62608f4550522cf910160405180910390a3509695505050505050565b6000611797611e15565b600083116117f55760405162461bcd60e51b815260206004820152602560248201527f4372656469747320616d6f756e74206d75737420626520677265617465722074604482015264068616e20360dc1b606482015260840161074d565b600082116118455760405162461bcd60e51b815260206004820152601c60248201527f5072696365206d7573742062652067726561746572207468616e203000000000604482015260640161074d565b600254604051631aa7c1f560e01b81523360048201526024810186905284916001600160a01b031690631aa7c1f590604401602060405180830381865afa158015611894573d6000803e3d6000fd5b505050506040513d601f19601f820116820180604052508101906118b8919061242d565b10156119065760405162461bcd60e51b815260206004820152601c60248201527f496e73756666696369656e742070726f6a656374206372656469747300000000604482015260640161074d565b600b805460009182611917836123a0565b909155506040805160e081018252828152336020808301918252828401998a526060830198895260808301978852600160a084018181524260c0860190815260008881526005948590529690962094518555925190840180546001600160a01b0319166001600160a01b039092169190911790559851600283015596516003820155945160048601559451958401805460ff1916961515969096179095555050905160069091015590565b600081815260066020908152604091829020805483518184028101840190945280845260609392830182828015610b9e5760200282019190600052602060002090815481526020019060010190808311610b8a5750505050509050919050565b611a2a611d93565b6001600160a01b038116611a5457604051631e4fbdf760e01b81526000600482015260240161074d565b611a5d81611e6a565b50565b611a68611e15565b611a70611e40565b60008281526005602081905260409091209081015460ff16611acc5760405162461bcd60e51b81526020600482015260156024820152744c697374696e67206973206e6f742061637469766560581b604482015260640161074d565b600082118015611ae0575080600301548211155b611b255760405162461bcd60e51b8152602060048201526016602482015275125b9d985b1a590818dc99591a5d1cc8185b5bdd5b9d60521b604482015260640161074d565b6000816004015483611b3791906123b9565b905080341015611b805760405162461bcd60e51b8152602060048201526014602482015273125b9cdd59999a58da595b9d081c185e5b595b9d60621b604482015260640161074d565b6000612710600c5483611b9391906123b9565b611b9d91906123d6565b90506000611bab82846123f8565b60018501546040519192506001600160a01b03169082156108fc029083906000818181858888f19350505050158015611be8573d6000803e3d6000fd5b50600280546001860154918601546040516322f76a0760e21b81526001600160a01b039384166004820152336024820152604481018990526064810191909152911690638bdda81c906084016020604051808303816000875af1158015611c53573d6000803e3d6000fd5b505050506040513d601f19601f82011682018060405250810190611c77919061240b565b611cbc5760405162461bcd60e51b815260206004820152601660248201527510dc99591a5d081d1c985b9cd9995c8819985a5b195960521b604482015260640161074d565b84846003016000828254611cd091906123f8565b90915550506003840154600003611cee5760058401805460ff191690555b82341115611d2e57336108fc611d0485346123f8565b6040518115909202916000818181858888f19350505050158015611d2c573d6000803e3d6000fd5b505b6001840154600285015460408051888152602081018790529081019190915233916001600160a01b0316907f9856dcfeeff0227e0797723483c846a519e5e41fbf6c2cb0cbc6ef8a6cb426379060600160405180910390a350505050610b3a60018055565b6000546001600160a01b031633146109465760405163118cdaa760e01b815233600482015260240161074d565b611dc8611efd565b6000805460ff60a01b191690557f5db9ee0a495bf2e6ff9c91a7834c1ba4fdd244a5e8aa4e537bd38aeae4b073aa335b6040516001600160a01b03909116815260200160405180910390a1565b600054600160a01b900460ff16156109465760405163d93c066560e01b815260040160405180910390fd5b600260015403611e6357604051633ee5aeb560e01b815260040160405180910390fd5b6002600155565b600080546001600160a01b038381166001600160a01b0319831681178455604051919092169283917f8be0079c531659141344cd1fd0a4f28419497f9722a3daafe3b4186f6b6457e09190a35050565b611ec2611e15565b6000805460ff60a01b1916600160a01b1790557f62e78cea01bee320cd4e420270b5ea74000d11b0c9f74754ebdbfc544b05a258611df83390565b600054600160a01b900460ff1661094657604051638dfc202b60e01b815260040160405180910390fd5b600060208284031215611f3957600080fd5b5035919050565b6000815180845260005b81811015611f6657602081850181015186830182015201611f4a565b506000602082860101526020601f19601f83011685010191505092915050565b634e487b7160e01b600052602160045260246000fd5b60006101208b83528a602084015260018060a01b038a1660408401528860608401528760808401528660a08401528060c0840152611fdc81840187611f40565b91505060038410611fef57611fef611f86565b60e08201939093526101000152979650505050505050565b6000806040838503121561201a57600080fd5b50508035926020909101359150565b80356001600160a01b038116811461204057600080fd5b919050565b6000806040838503121561205857600080fd5b61206183612029565b946020939093013593505050565b8a81526001600160a01b038a1660208201526101406040820181905260009061209a8382018c611f40565b905082810360608401526120ae818b611f40565b9150508760808301528660a08301528560c0830152600485106120d3576120d3611f86565b8460e083015283610100830152826101208301529b9a5050505050505050505050565b60006020828403121561210857600080fd5b61211182612029565b9392505050565b6020808252825182820181905260009190848201906040850190845b8181101561215057835183529284019291840191600101612134565b50909695505050505050565b634e487b7160e01b600052604160045260246000fd5b600082601f83011261218357600080fd5b813567ffffffffffffffff8082111561219e5761219e61215c565b604051601f8301601f19908116603f011681019082821181831017156121c6576121c661215c565b816040528381528660208588010111156121df57600080fd5b836020870160208301376000602085830101528094505050505092915050565b600080600080600060a0868803121561221757600080fd5b85359450602086013593506040860135925060608601359150608086013567ffffffffffffffff81111561224a57600080fd5b61225688828901612172565b9150509295509295909350565b600080600080600060a0868803121561227b57600080fd5b853567ffffffffffffffff8082111561229357600080fd5b61229f89838a01612172565b965060208801359150808211156122b557600080fd5b506122c288828901612172565b959895975050505060408401359360608101359360809091013592509050565b6000806000606084860312156122f757600080fd5b505081359360208301359350604090920135919050565b600181811c9082168061232257607f821691505b60208210810361234257634e487b7160e01b600052602260045260246000fd5b50919050565b6020808252601290820152712a32b73232b91034b9903737ba1037b832b760711b604082015260600190565b634e487b7160e01b600052603260045260246000fd5b634e487b7160e01b600052601160045260246000fd5b6000600182016123b2576123b261238a565b5060010190565b80820281158282048414176123d0576123d061238a565b92915050565b6000826123f357634e487b7160e01b600052601260045260246000fd5b500490565b818103818111156123d0576123d061238a565b60006020828403121561241d57600080fd5b8151801515811461211157600080fd5b60006020828403121561243f57600080fd5b5051919050565b601f82111561249057600081815260208120601f850160051c8101602086101561246d5750805b601f850160051c820191505b8181101561248c57828155600101612479565b5050505b505050565b815167ffffffffffffffff8111156124af576124af61215c565b6124c3816124bd845461230e565b84612446565b602080601f8311600181146124f857600084156124e05750858301515b600019600386901b1c1916600185901b17855561248c565b600085815260208120601f198616915b8281101561252757888601518255948401946001909101908401612508565b50858210156125455787850151600019600388901b60f8161c191681555b5050505050600190811b01905550565b808201808211156123d0576123d061238a56fea26469706673582212203c3f00b50940c59a0a264e1e5bb7db2a1d3773ce3c46b6c9a48ccaf5e0d0489f64736f6c63430008140033",
  "linkReferences": {},
  "deployedLinkReferences": {}
}